{
  "_format": "hh-sol-artifact-1",
  "contractName": "StudentManagement",
  "sourceName": "contracts/StudentManagement.sol",
  "abi": [
    {
      "inputs": [
        {
          "internalType": "uint256",
          "name": "_enrollementFee",
          "type": "uint256"
        }
      ],
      "stateMutability": "nonpayable",
      "type": "constructor"
    },
    {
      "inputs": [
        {
          "internalType": "string",
          "name": "_name",
          "type": "string"
        },
        {
          "internalType": "uint256",
          "name": "_age",
          "type": "uint256"
        }
      ],
      "name": "addStudent",
      "outputs": [],
      "stateMutability": "payable",
      "type": "function"
    },
    {
      "inputs": [
        {
          "internalType": "uint256",
          "name": "_id",
          "type": "uint256"
        }
      ],
      "name": "deleteStudent",
      "outputs": [],
      "stateMutability": "nonpayable",
      "type": "function"
    },
    {
      "inputs": [
        {
          "internalType": "uint256",
          "name": "_id",
          "type": "uint256"
        }
      ],
      "name": "getStudent",
      "outputs": [
        {
          "internalType": "uint256",
          "name": "",
          "type": "uint256"
        },
        {
          "internalType": "string",
          "name": "",
          "type": "string"
        },
        {
          "internalType": "uint256",
          "name": "",
          "type": "uint256"
        },
        {
          "internalType": "bool",
          "name": "",
          "type": "bool"
        },
        {
          "internalType": "uint256",
          "name": "",
          "type": "uint256"
        }
      ],
      "stateMutability": "view",
      "type": "function"
    },
    {
      "inputs": [],
      "name": "owner",
      "outputs": [
        {
          "internalType": "address",
          "name": "",
          "type": "address"
        }
      ],
      "stateMutability": "view",
      "type": "function"
    },
    {
      "inputs": [],
      "name": "studentCount",
      "outputs": [
        {
          "internalType": "uint256",
          "name": "",
          "type": "uint256"
        }
      ],
      "stateMutability": "view",
      "type": "function"
    },
    {
      "inputs": [
        {
          "internalType": "uint256",
          "name": "_id",
          "type": "uint256"
        },
        {
          "internalType": "string",
          "name": "_name",
          "type": "string"
        },
        {
          "internalType": "uint256",
          "name": "_age",
          "type": "uint256"
        }
      ],
      "name": "updateStudent",
      "outputs": [],
      "stateMutability": "nonpayable",
      "type": "function"
    }
  ],
  "bytecode": "0x608060405234801561001057600080fd5b50604051610dae380380610dae8339818101604052810190610032919061009d565b33600160006101000a81548173ffffffffffffffffffffffffffffffffffffffff021916908373ffffffffffffffffffffffffffffffffffffffff160217905550600060028190555080600381905550506100e7565b600081519050610097816100d0565b92915050565b6000602082840312156100af57600080fd5b60006100bd84828501610088565b91505092915050565b6000819050919050565b6100d9816100c6565b81146100e457600080fd5b50565b610cb8806100f66000396000f3fe6080604052600436106100555760003560e01c80630e5eeef71461005a578063642f9163146100765780638da5cb5b146100b7578063b645307d146100e2578063e581f9ee1461010b578063ec7505b114610136575b600080fd5b610074600480360381019061006f91906107b1565b61015f565b005b34801561008257600080fd5b5061009d60048036038101906100989190610805565b610227565b6040516100ae9594939291906109f1565b60405180910390f35b3480156100c357600080fd5b506100cc6103ab565b6040516100d9919061097b565b60405180910390f35b3480156100ee57600080fd5b5061010960048036038101906101049190610805565b6103d1565b005b34801561011757600080fd5b50610120610550565b60405161012d91906109d6565b60405180910390f35b34801561014257600080fd5b5061015d6004803603810190610158919061082e565b610556565b005b600354341461016d57600080fd5b6002600081548092919061018090610b84565b91905055506040518060a0016040528060025481526020018381526020018281526020016001151581526020013481525060008060025481526020019081526020016000206000820151816000015560208201518160010190805190602001906101eb929190610691565b506040820151816002015560608201518160030160006101000a81548160ff021916908315150217905550608082015181600401559050505050565b60006060600080600080600087815260200190815260200160002060030160009054906101000a900460ff16610292576040517f08c379a0000000000000000000000000000000000000000000000000000000008152600401610289906109b6565b60405180910390fd5b60008087815260200190815260200160002060000154600080888152602001908152602001600020600101600080898152602001908152602001600020600201546000808a815260200190815260200160002060030160009054906101000a900460ff166000808b81526020019081526020016000206004015483805461031890610b52565b80601f016020809104026020016040519081016040528092919081815260200182805461034490610b52565b80156103915780601f1061036657610100808354040283529160200191610391565b820191906000526020600020905b81548152906001019060200180831161037457829003601f168201915b505050505093509450945094509450945091939590929450565b600160009054906101000a900473ffffffffffffffffffffffffffffffffffffffff1681565b600160009054906101000a900473ffffffffffffffffffffffffffffffffffffffff1673ffffffffffffffffffffffffffffffffffffffff163373ffffffffffffffffffffffffffffffffffffffff1614610461576040517f08c379a000000000000000000000000000000000000000000000000000000000815260040161045890610996565b60405180910390fd5b60008082815260200190815260200160002060030160009054906101000a900460ff166104c3576040517f08c379a00000000000000000000000000000000000000000000000000000000081526004016104ba906109b6565b60405180910390fd5b600080600083815260200190815260200160002060030160006101000a81548160ff0219169083151502179055503373ffffffffffffffffffffffffffffffffffffffff166108fc600080848152602001908152602001600020600401549081150290604051600060405180830381858888f1935050505015801561054c573d6000803e3d6000fd5b5050565b60025481565b600160009054906101000a900473ffffffffffffffffffffffffffffffffffffffff1673ffffffffffffffffffffffffffffffffffffffff163373ffffffffffffffffffffffffffffffffffffffff16146105e6576040517f08c379a00000000000000000000000000000000000000000000000000000000081526004016105dd90610996565b60405180910390fd5b60008084815260200190815260200160002060030160009054906101000a900460ff16610648576040517f08c379a000000000000000000000000000000000000000000000000000000000815260040161063f906109b6565b60405180910390fd5b816000808581526020019081526020016000206001019080519060200190610671929190610691565b508060008085815260200190815260200160002060020181905550505050565b82805461069d90610b52565b90600052602060002090601f0160209004810192826106bf5760008555610706565b82601f106106d857805160ff1916838001178555610706565b82800160010185558215610706579182015b828111156107055782518255916020019190600101906106ea565b5b5090506107139190610717565b5090565b5b80821115610730576000816000905550600101610718565b5090565b600061074761074284610a7c565b610a4b565b90508281526020810184848401111561075f57600080fd5b61076a848285610b10565b509392505050565b600082601f83011261078357600080fd5b8135610793848260208601610734565b91505092915050565b6000813590506107ab81610c6b565b92915050565b600080604083850312156107c457600080fd5b600083013567ffffffffffffffff8111156107de57600080fd5b6107ea85828601610772565b92505060206107fb8582860161079c565b9150509250929050565b60006020828403121561081757600080fd5b60006108258482850161079c565b91505092915050565b60008060006060848603121561084357600080fd5b60006108518682870161079c565b935050602084013567ffffffffffffffff81111561086e57600080fd5b61087a86828701610772565b925050604061088b8682870161079c565b9150509250925092565b61089e81610ac8565b82525050565b6108ad81610ada565b82525050565b60006108be82610aac565b6108c88185610ab7565b93506108d8818560208601610b1f565b6108e181610c5a565b840191505092915050565b60006108f9600983610ab7565b91507f4e6f2061636365737300000000000000000000000000000000000000000000006000830152602082019050919050565b6000610939600c83610ab7565b91507f4e6f7420456e726f6c6c656400000000000000000000000000000000000000006000830152602082019050919050565b61097581610b06565b82525050565b60006020820190506109906000830184610895565b92915050565b600060208201905081810360008301526109af816108ec565b9050919050565b600060208201905081810360008301526109cf8161092c565b9050919050565b60006020820190506109eb600083018461096c565b92915050565b600060a082019050610a06600083018861096c565b8181036020830152610a1881876108b3565b9050610a27604083018661096c565b610a3460608301856108a4565b610a41608083018461096c565b9695505050505050565b6000604051905081810181811067ffffffffffffffff82111715610a7257610a71610c2b565b5b8060405250919050565b600067ffffffffffffffff821115610a9757610a96610c2b565b5b601f19601f8301169050602081019050919050565b600081519050919050565b600082825260208201905092915050565b6000610ad382610ae6565b9050919050565b60008115159050919050565b600073ffffffffffffffffffffffffffffffffffffffff82169050919050565b6000819050919050565b82818337600083830152505050565b60005b83811015610b3d578082015181840152602081019050610b22565b83811115610b4c576000848401525b50505050565b60006002820490506001821680610b6a57607f821691505b60208210811415610b7e57610b7d610bfc565b5b50919050565b6000610b8f82610b06565b91507fffffffffffffffffffffffffffffffffffffffffffffffffffffffffffffffff821415610bc257610bc1610bcd565b5b600182019050919050565b7f4e487b7100000000000000000000000000000000000000000000000000000000600052601160045260246000fd5b7f4e487b7100000000000000000000000000000000000000000000000000000000600052602260045260246000fd5b7f4e487b7100000000000000000000000000000000000000000000000000000000600052604160045260246000fd5b6000601f19601f8301169050919050565b610c7481610b06565b8114610c7f57600080fd5b5056fea26469706673582212207201074a5dfc26916caee52bfa3bc87ce7bb3766af817df79a2e3c0f9c5b06ee64736f6c63430008000033",
  "linkReferences": {},
  "deployedLinkReferences": {}
}